:020000020000FC
:1000000002E012E223E03CE048E00F931F932F93BD
:100010003F934F930F911F912F913F914F91502FED
:100020000E942700512F0E942700522F0E94270074
:10003000532F0E942700542F0E9427000E944B003C
:10004000FF910F2E5F915D1531F10E942700523014
:100050000E94370053300E943B0058300E943F00FE
:100060005C300E94430052320E9447000895509332
:1000700000010E942200509301010E94220050932F
:1000800002010E942200509303010E94220050931B
:1000900004010E9422000E9475000F2E0895FF9116
:1000A000FF930895FF91FF930895FF91EF91EF93D0
:1000B000FF930895FF91EF91DF91DF93EF93FF930B
:1000C0000895EF91DF91CF91BF91BF93CF93DF93CD
:1000D000EF9308950F911F912F913F914F91AF93FF
:0C00E000BF93CF93DF93EF9308959895A2
:00000001FF
