:020000020000FC
:100000000E946900109000012090010130900201CF
:10001000409003010E940C000114B8F10214C0F1D9
:100020000314C8F10414D0F10092050100240E94C9
:10003000190001E001210015A1F102210015B9F11B
:1000400003210015D1F104210015E9F10E942800D7
:10005000012D020D132D140D002E010E009207012B
:10006000002711270E94340005940594009208018E
:1000700000240E943B004092100130921101209216
:100080001201109213010E947B00012C0E940C00AF
:10009000022C0E940C00032C0E940C00042C0E94D5
:1000A0000C0010920601002700240E9428002092D4
:1000B0000601002700240E94280030920601002734
:1000C00000240E94280040920601002700240E947C
:1000D00028000AE01DE027E13AE1009300011093B7
:1000E00001012093020130930301002711272227E9
:0800F00033270E9402009895DD
:00000001FF
