:020000020000FC
:1000000003950F930093000103950F930093010153
:1000100003950F930093020103950F93009303013F
:1000200003950F930093040103950F93009305012B
:1000300003950F930093060103950F930093070117
:1000400003950F930093080103950F930093090103
:1000500003950F9300930A0103950F9300930B01EF
:1000600003950F9300930C0103950F9300930D01DB
:1000700003950F9300930E0103950F9300930F01C7
:1000800003950F930093100103950F9300931101B3
:1000900003950F930093120103950F93009313019F
:1000A00003950F930093140103950F93009315018B
:1000B00003950F930093160103950F930093170177
:1000C00003950F930093180103950F930093190163
:1000D00003950F9300931A0103950F9300931B014F
:1000E00003950F9300931C0103950F9300931D013B
:1000F00003950F9300931E0103950F9300931F0127
:1001000003950F930093200103950F930093210112
:1001100003950F930093220103950F9300932301FE
:1001200003950F930093240103950F9300932501EA
:1001300003950F930093260103950F9300932701D6
:1001400003950F930093280103950F9300932901C2
:1001500003950F9300932A0103950F9300932B01AE
:1001600003950F9300932C0103950F9300932D019A
:1001700003950F9300932E0103950F9300932F0186
:1001800003950F930093300103950F930093310172
:1001900003950F930093320103950F93009333015E
:1001A00003950F930093340103950F93009335014A
:1001B00003950F930093360103950F930093370136
:1001C00003950F930093380103950F930093390122
:1001D00003950F9300933A0103950F9300933B010E
:1001E00003950F9300933C0103950F9300933D01FA
:1001F00003950F9300933E0103950F9300933F01E6
:1002000003950F930093400103950F9300934101D1
:1002100003950F930093420103950F9300934301BD
:1002200003950F930093440103950F9300934501A9
:1002300003950F930093460103950F930093470195
:1002400003950F930093480103950F930093490181
:1002500003950F9300934A0103950F9300934B016D
:1002600003950F9300934C0103950F9300934D0159
:1002700003950F9300934E0103950F9300934F0145
:1002800003950F930093500103950F930093510131
:1002900003950F930093520103950F93009353011D
:1002A00003950F930093540103950F930093550109
:1002B00003950F930093560103950F9300935701F5
:1002C00003950F930093580103950F9300935901E1
:1002D00003950F9300935A0103950F9300935B01CD
:1002E00003950F9300935C0103950F9300935D01B9
:1002F00003950F9300935E0103950F9300935F01A5
:1003000003950F930093600103950F930093610190
:1003100003950F930093620103950F93009363017C
:100320000E9492012F913F911F91109300011F9104
:10033000109301010F91009302010F9100930301AB
:100340000F91009304010F91009305010F91009309
:1003500006010F91009307010F91009308010F917F
:10036000009309010F9100930A010F9100930B0173
:100370000F9100930C010F9100930D010F910093C9
:100380000E010F9100930F010F91009310010F9137
:10039000009311010F91009312010F91009313012B
:1003A0000F91009314010F91009315010F91009389
:1003B00016010F91009317010F91009318010F91EF
:1003C000009319010F9100931A010F9100931B01E3
:1003D0000F9100931C010F9100931D010F91009349
:1003E0001E010F9100931F010F91009320010F91A7
:1003F000009321010F91009322010F91009323019B
:100400000F91009324010F91009325010F91009308
:1004100026010F91009327010F91009328010F915E
:10042000009329010F9100932A010F9100932B0152
:100430000F9100932C010F9100932D010F910093C8
:100440002E010F9100932F010F91009330010F9116
:10045000009331010F91009332010F91009333010A
:100460000F91009334010F91009335010F91009388
:1004700036010F91009337010F91009338010F91CE
:10048000009339010F9100933A010F9100933B01C2
:100490000F9100933C010F9100933D010F91009348
:1004A0003E010F9100933F010F91009340010F9186
:1004B000009341010F91009342010F91009343017A
:1004C0000F91009344010F91009345010F91009308
:1004D00046010F91009347010F91009348010F913E
:1004E000009349010F9100934A010F9100934B0132
:1004F0000F9100934C010F9100934D010F910093C8
:100500004E010F9100934F010F91009350010F91F5
:10051000009351010F91009352010F9100935301E9
:100520000F91009354010F91009355010F91009387
:1005300056010F91009357010F91009358010F91AD
:10054000009359010F9100935A010F9100935B01A1
:100550000F9100935C010F9100935D010F91009347
:100560005E010F9100935F010F91009360010F9165
:10057000009361010F91009362010F910093630159
:0205800098954C
:00000001FF
